:1000000052C0000081C000007FC000007DC0000021
:100010007BC0000072C3000077C0000075C0000004
:1000200073C0000071C000006FC000006DC0000010
:100030006BC0000069C0000067C0000065C0000020
:1000400063C0000061C000005FC000005DC0000030
:100050005BC00000D0C20000C8C20000D2C20000D5
:1000600053C0000051C000004FC000004DC0000050
:100070004BC0000049C000009CC2000045C0000009
:1000800043C0000041C000003FC000003DC0000070
:100090000000020104060202FF03101204080A0510
:1000A0000007AD030F0611241FBECFEFCDBFDFE762
:1000B000DEBF8091400080934000811105C098ED23
:1000C00021E094BF209341008CBB10E6A0E0B0E695
:1000D000E4E3FFE002C005900D92A839B107D9F71B
:1000E00022E6A8E9B0E601C01D92A730B207E1F709
:1000F00010E0C2E5D0E003C02197FE01FAD6C13579
:10010000D107D1F758D30AC77BCF9FB7F894E091B6
:100110002A0BF0912B0B8091260B20916561309179
:10012000666140916761509168619FBF80FF08C020
:10013000CF018827892B21F42F5F3F4F4F4F5F4F0F
:100140000F01169407941694079416940794169426
:100150000794F00116940794E00DF11D169407948E
:10016000102C169401181694010C1694011816946C
:10017000010C1694011816941694010C1124E01920
:10018000F109A8EEB3E0ABD66E0F7F1F811D911D64
:100190000895AF92BF92CF92DF92EF92FF920F93AA
:1001A0001F93CF93DF936C017B018B01040F151F0D
:1001B000EB015E01AE18BF08C017D10759F0699175
:1001C000D601ED91FC910190F081E02DC6010995D9
:1001D000892B79F7C501DF91CF911F910F91FF9086
:1001E000EF90DF90CF90BF90AF900895FC015189C0
:1001F0004289252F30E0842F90E0821B930B541707
:1002000010F0CF96089501970895FC019785808995
:10021000981761F0A089AE0FBF2FB11D53968C9136
:1002200090899F5F9F73908B90E008958FEF9FEF71
:100230000895FC0197858089981731F08089E80F2F
:10024000F11D838990E008958FEF9FEF0895FC01E1
:1002500097852089892F90E0805C9F4F821B9109B0
:100260008F7399270895FC010FB607FE04C0809193
:1002700011018823A1F0A085B18514968C91149763
:1002800085FF0DC091898289981307C015968C91BE
:1002900015978F7D15968C930895E894BFC10895A6
:1002A0000F931F93CF93DF93EC018E8581608E8730
:1002B00099898A8998130BC0E885F985848185FF1F
:1002C00006C08E8581FD0DC080E4848312C0062F98
:1002D00019891F5F1F738A89811315C0CE01C3DF7F
:1002E000FACF85818F77806490E49483E885F985DF
:1002F0008583E885F985628381E090E0DF91CF9185
:100300001F910F910895E989EC0FFD2FF11DED5A12
:10031000FF4F0083198B8E85E885F98581FF09C021
:1003200085818F77806690E49483E885F98585835D
:10033000E3CF85818062FBCFCF93DF93EC018E8585
:10034000882359F0E885F985858185FD03C084817E
:1003500086FD03C0CE0187DFF5CFDF91CF910895F1
:10036000FB0101900020E9F73197AF01461B570BC5
:10037000DC01ED91FC910280F381E02D09948F92D4
:100380009F92AF92BF92EF92FF920F931F93CF93E2
:10039000DF93CDB7DEB7A197CDBFDEBF7C01FA01F9
:1003A000CB0119A2223008F42AE08E010F5D1F4F05
:1003B000822E912CB12CA12CBF01A50194016DD5E9
:1003C000F901CA016A30ECF4605DD8016E938D01C9
:1003D000232B242B252B81F790E080E0109719F038
:1003E000BD01C701BDDFA196CDBFDEBFDF91CF91BB
:1003F0001F910F91FF90EF90BF90AF909F908F90C3
:100400000895695CE2CF9F92AF92BF92CF92DF9244
:10041000EF92FF920F931F93CF93DF93809142014E
:100420008D7F809342010091480110914901015054
:100430001109E090FC61F090FD61C0900062D090E5
:100440000162CC0CDD1CCE0CDF1C9924939445E09A
:10045000A42EB12CCE14DF0481F1F701C191D1910A
:100460007F018A819B8180179107A1F78D81882365
:1004700089F39F8228813981200F311FC901B5017D
:10048000F8D4009721F02B5F3F4F281B390B2A83AC
:100490003B8380916461882359F0EA85FB858885D8
:1004A000998509951F828E81882311F01D821E82F5
:1004B0008C81882379F21D82CDCFE091FC61F0918F
:1004C000FD618091006290910162880F991F8E0FEB
:1004D0009F1F20E04FEF5FEF8E179F07B9F0A191AC
:1004E000B19115966C9115976623B1F316963C91D0
:1004F00016973111F1CF12962D913C91201B310BA3
:100500002417350708F4A901262FE6CF2223D9F0B6
:1005100080914201826080934201400F511F80917F
:10052000410183FDFCCF40934C0150934D01DF917D
:10053000CF911F910F91FF90EF90DF90CF90BF90E0
:10054000AF909F90089580919A6090919B600097E2
:1005500019F06CE670E604DFC0919A60D0919B6060
:10056000209751F0A80170E060E02AE0CE0107DF9B
:100570006BE770E6CE01F4DE809142018D7F8093BF
:100580004201D5CFCF93DF93EC016EE770E689E6A9
:1005900091E6E6DE4881598170E060E02AE089E674
:1005A00091E6EDDE6BE770E689E691E6DF91CF91AB
:1005B000D7CEEF93FF93E5E6F1E68F938FB78F9356
:1005C00080818F5F808381818F4F818382818F4F74
:1005D000828383818F4F838381E08093260B8F9169
:1005E0008FBF8F91FF91EF911895EF93FF93F8983C
:1005F000E9E6F1E60BC0EF93FF93F898E9E6F1E640
:1006000033C0EF93FF93E9E6F1E65EC02F932FB777
:100610002F938F939F93AF93BF936894CF93DF9360
:1006200020E0C085D8E09289DF01A90FB21FAD5A42
:10063000BF4F8C9120E42C838A839F5F9F738D81B1
:100640002189291302C08F7D8D83928BDF91CF91F9
:100650000EF025CEBF91AF919F918F912F912FBF1B
:100660002F91FF91EF9118952F932FB72F933F93D1
:100670008F939F93CF93DF93C085D8E02E812F7EF9
:100680002E83898198818674880F3685382B82FD68
:100690000DC0C78581E08C0F8F732089281791F0DA
:1006A000CE0FDF2F20E0D21F9B8B87873687DF910D
:1006B000CF919F918F913F912F912FBF2F91FF91BC
:1006C000EF9118953064F2CF8F938FB78F939F93EC
:1006D000CF93DF93C085D8E09D8188818C8187FD91
:1006E000FCCF9F7B90689D83DF91CF919F918F91ED
:1006F0008FBF8F91FF91EF9118951F920F920FB6B8
:100700000F9211242F933F934F935F936F937F9397
:100710008F939F93AF93BF93EF93FF938091430188
:1007200081FF07C0E0919860F0919960309709F0DF
:10073000099582E080934301FF91EF91BF91AF91C2
:100740009F918F917F916F915F914F913F912F91E9
:100750000F900FBE0F901F901895CF93DF93E9E68F
:10076000F1E61282138288EE93E0A0E0B0E0848389
:100770009583A683B7838EE590E68083918380E09E
:1007800098E08087918780E990E08287938785E071
:10079000848715861686CCEFD1E688E090E08A83C0
:1007A0009B831C821D8280E190E03ED288839983E6
:1007B000DF91CF91089588ED94E284BF9093680013
:1007C00031E03093030A9EEF9093260A9093270A14
:1007D0008BE08093000A23E02093E7051092E80560
:1007E00047E04093010B90930C0B10920D0B85E0AA
:1007F0008093000B4093110B90931C0B10921D0BD8
:100800008093100B4FEF5FE04093AA0B5093AB0B1C
:1008100090E89093820B1092810B4BEF53E0409342
:10082000AE0B5093AF0B91E79093800B92E09093B7
:10083000E905809302069EE09093050690E690936A
:100840000306809300068091B000887F85608093C6
:10085000B0008091B200887F85608093B2008FEDF8
:100860009EE280932C0B90932D0B3093250B1092CE
:10087000210B2093200B78948091776180FF13C027
:1008800089E691E659DDE0917161F09172618681AE
:1008900016828581158280E48483809179618093BA
:1008A0007861109277616FB7F894E0917161F0917F
:1008B0007261168233E0378381E493E08087918709
:1008C000148680E8858380EC868320917661709120
:1008D00075618091736190917461FC01239FE00DBB
:1008E000F11D112445915491271708F03FC0252F81
:1008F00030E05C3180F4F901E25CFF49A081AF3F58
:1009000051F02E5D3F49E901E881D0E2ED9FF00111
:100910001124FC5FA183E1E0E50F2E2F30E0EC31E4
:1009200028F5F901E25CFF49C081CF3FF9F0F901F8
:10093000EE5DFF49A081E0E2AE9FD0011124BC5FD3
:100940002A5F3F49F901D081F0E0E0E0D83030F48F
:100950009D01205F3F4FF901ED0FF11D3FB7F89466
:100960001296CC932081286020833FBFFC0123E0B6
:10097000729FE00DF11D11243296E4918091E20501
:10098000E095E823E42BE093E2056FBF89E691E66A
:1009900080939A6090939B60109264618091410172
:1009A0008111FCCF109248011092490181E080939F
:1009B000470183E092E080939860909399608091E2
:1009C0004201826080934201809141018111FCCFFC
:1009D0008091400181608093400166E870E689E67D
:1009E00091E6BEDC6BE770E689E691E6B9DCFCE9EE
:1009F000CF2EF0E6DF2E04E610E0F12CE12CA5E08E
:100A00006A2E712CB2EC4B2EB2E05B2EF601E08226
:100A1000F1828CE090E008D1EC01FFEFEF1AFF0AC1
:100A2000C801B30126D29801009721F02B5F3F4FF8
:100A3000281B390B288339831C82C886D9864A86AD
:100A40005B861A821B821D821E82809000629090BB
:100A5000016254012FEFA21AB20A8A149B0408F013
:100A600081C02091FE613091FF612A153B0518F588
:100A7000C401099628173907F0F42090FC613090E2
:100A8000FD618093FE619093FF61880F991FCCD028
:100A90008093FC619093FD61D101FC0190E080E0C6
:100AA0008816990631F02D913D912193319301964D
:100AB000F7CFC10155D180910062909101629C01F4
:100AC000220F331FE091FC61F091FD61E20FF31FF3
:100AD0008A159B0520F4C193D1930196F9CFA0927A
:100AE0000062B09201622091480130914901C90130
:100AF000B301BFD1009721F02B5F3F4F281B390B6B
:100B0000E881F981E20FF31FCF01B301B2D1009761
:100B100019F03596E81BF90BEA83FB8381E08D839E
:100B2000E091FC61F091FD614091006250910162A1
:100B3000440F551F4E0F5F1F8FEF9FEFE417F50710
:100B4000B1F0A191B19115966C9115976623B1F30F
:100B500012966D917C91621B730B6817790770F781
:100B6000CB01ECCF1092006210920162BCCF280F33
:100B7000391F8091410183FDFCCF20934C013093BC
:100B80004D0180914201826080934201BEDAEB0107
:100B900095E0892E912CA12CB12CB7DA6C1B7D0B22
:100BA000683E7340D0F3F1E08F1A9108A108B108B4
:100BB000C851DC4F81149104A104B10471F782E0A3
:100BC000C80ED11C0C591F4FC4E6EC16F10409F0F5
:100BD0001DCF809164618111FECF0091FC61109165
:100BE000FD61E0900062F0900162EE0CFF1CE00EEF
:100BF000F11E0E151F0569F3F801C191D1918F0106
:100C00008F818823B1F31F82EA85FB8588859985CA
:100C100009958E81882369F31D821E82EACF809117
:100C2000FC619091FD619CC00F931F93CF93DF9364
:100C30008230910510F482E090E0E0910562F0913D
:100C4000066230E020E0B0E0A0E0309799F4211592
:100C5000310509F44AC0281B390B24303105D8F579
:100C60008A819B816115710589F1FB0182839383E0
:100C7000FE0111C04081518102811381481759073B
:100C8000E0F04817590799F4109761F012960C9309
:100C9000129713961C933296CF01DF91CF911F913B
:100CA0000F9108950093056210930662F4CF211509
:100CB000310551F04217530738F0A901DB019A01C1
:100CC000BD01DF01F801C1CFEF01F9CF80930562CB
:100CD00090930662CDCFFE01E20FF31F81939193B3
:100CE0002250310928833983D7CF20910362309174
:100CF0000462232B41F42091026030910360209321
:100D000003623093046220910060309101602115EC
:100D1000310541F42DB73EB7409104605091056014
:100D2000241B350BE0910362F0910462E217F30794
:100D3000A0F42E1B3F0B2817390778F0AC014E5F4B
:100D40005F4F2417350748F04E0F5F1F4093036233
:100D500050930462819391939FCFF0E0E0E09CCFA9
:100D6000CF93DF930097E9F0FC0132971282138250
:100D7000A0910562B0910662ED0130E020E010978D
:100D8000A1F420813181820F931F20910362309161
:100D900004622817390709F061C0E0930362F093F9
:100DA0000462DF91CF910895EA01CE17DF07E8F5DD
:100DB0004A815B819E0141155105B1F7E901EA8342
:100DC000FB8349915991C40FD51FEC17FD0761F4BE
:100DD000808191810296840F951FE9018883998310
:100DE000828193818A839B83F0E0E0E012968D916B
:100DF0009C9113970097B9F52D913C911197CD01D6
:100E00000296820F931F209103623091046228178B
:100E1000390739F6309751F5109205621092066243
:100E2000A0930362B0930462BCCFC283D38340819A
:100E30005181840F951FC817D90761F44E5F5F4F2A
:100E400088819981480F591F408351838A819B81F2
:100E5000828393832115310509F0B0CFE0930562B9
:100E6000F09306629ECFFD01DC01C0CF1282138297
:100E7000D7CFAA1BBB1B51E107C0AA1FBB1FA617D8
:100E8000B70710F0A61BB70B881F991F5A95A9F733
:100E900080959095BC01CD010895A1E21A2EAA1B60
:100EA000BB1BFD010DC0AA1FBB1FEE1FFF1FA2171A
:100EB000B307E407F50720F0A21BB30BE40BF50B17
:100EC000661F771F881F991F1A9469F760957095A0
:100ED000809590959B01AC01BD01CF0108950FD085
:100EE000A59F900DB49F900DA49F800D911D11247E
:100EF0000895EE0FFF1F0590F491E02D0994A29F35
:100F0000B001B39FC001A39F700D811D1124911DDD
:100F1000B29F700D811D1124911D089510E0C2E54E
:100F2000D0E003C0FE01E5DF2196C335D107D1F73C
:040F3000F894FFCF63
:100F340000000762800000010203040506070001A7
:100F44000203FF010203040506070001FFFFFFFF80
:100F54000607000000000000000002020202030372
:100F64000303030303030505FFFFFFFF0505010258
:100F740004081020408001020408FF020408102025
:100F840040800102FFFFFFFF40800000000050018D
:100F9400C900F6009C012701050119014E6F20616B
:100FA40063746976657320617420000D0A005469C6
:100FB4006D657220230054696D65723A3A696E69F1
:080FC400742829204F4B0000A6
:00000001FF
